{
  "contractName": "DevToken",
  "abi": [
    {
      "inputs": [
        {
          "internalType": "string",
          "name": "token_name",
          "type": "string"
        },
        {
          "internalType": "string",
          "name": "short_symbol",
          "type": "string"
        },
        {
          "internalType": "uint8",
          "name": "token_decimals",
          "type": "uint8"
        },
        {
          "internalType": "uint256",
          "name": "token_totalSupply",
          "type": "uint256"
        }
      ],
      "stateMutability": "nonpayable",
      "type": "constructor"
    },
    {
      "anonymous": false,
      "inputs": [
        {
          "indexed": true,
          "internalType": "address",
          "name": "from",
          "type": "address"
        },
        {
          "indexed": true,
          "internalType": "address",
          "name": "to",
          "type": "address"
        },
        {
          "indexed": false,
          "internalType": "uint256",
          "name": "value",
          "type": "uint256"
        }
      ],
      "name": "Transfer",
      "type": "event"
    },
    {
      "inputs": [],
      "name": "decimals",
      "outputs": [
        {
          "internalType": "uint8",
          "name": "",
          "type": "uint8"
        }
      ],
      "stateMutability": "view",
      "type": "function",
      "constant": true
    },
    {
      "inputs": [],
      "name": "symbol",
      "outputs": [
        {
          "internalType": "string",
          "name": "",
          "type": "string"
        }
      ],
      "stateMutability": "view",
      "type": "function",
      "constant": true
    },
    {
      "inputs": [],
      "name": "name",
      "outputs": [
        {
          "internalType": "string",
          "name": "",
          "type": "string"
        }
      ],
      "stateMutability": "view",
      "type": "function",
      "constant": true
    },
    {
      "inputs": [],
      "name": "totalSupply",
      "outputs": [
        {
          "internalType": "uint256",
          "name": "",
          "type": "uint256"
        }
      ],
      "stateMutability": "view",
      "type": "function",
      "constant": true
    },
    {
      "inputs": [
        {
          "internalType": "address",
          "name": "account",
          "type": "address"
        }
      ],
      "name": "balanceOf",
      "outputs": [
        {
          "internalType": "uint256",
          "name": "",
          "type": "uint256"
        }
      ],
      "stateMutability": "view",
      "type": "function",
      "constant": true
    },
    {
      "inputs": [
        {
          "internalType": "address",
          "name": "account",
          "type": "address"
        },
        {
          "internalType": "uint256",
          "name": "amount",
          "type": "uint256"
        }
      ],
      "name": "mint",
      "outputs": [],
      "stateMutability": "nonpayable",
      "type": "function"
    },
    {
      "inputs": [
        {
          "internalType": "address",
          "name": "account",
          "type": "address"
        },
        {
          "internalType": "uint256",
          "name": "amount",
          "type": "uint256"
        }
      ],
      "name": "burn",
      "outputs": [],
      "stateMutability": "nonpayable",
      "type": "function"
    },
    {
      "inputs": [
        {
          "internalType": "address",
          "name": "recipient",
          "type": "address"
        },
        {
          "internalType": "uint256",
          "name": "amount",
          "type": "uint256"
        }
      ],
      "name": "transfer",
      "outputs": [
        {
          "internalType": "bool",
          "name": "",
          "type": "bool"
        }
      ],
      "stateMutability": "nonpayable",
      "type": "function"
    }
  ],
  "bytecode": "0x60806040523480156200001157600080fd5b50604051620015d6380380620015d6833981810160405281019062000037919062000295565b83600390805190602001906200004f92919062000145565b5082600290805190602001906200006892919062000145565b5081600160006101000a81548160ff021916908360ff16021790555080600081905550600054600460003373ffffffffffffffffffffffffffffffffffffffff1673ffffffffffffffffffffffffffffffffffffffff168152602001908152602001600020819055503373ffffffffffffffffffffffffffffffffffffffff16600073ffffffffffffffffffffffffffffffffffffffff167fddf252ad1be2c89b69c2b068fc378daa952ba7f163c4a11628f55a4df523b3ef60005460405162000133919062000344565b60405180910390a3505050506200051c565b82805462000153906200040d565b90600052602060002090601f016020900481019282620001775760008555620001c3565b82601f106200019257805160ff1916838001178555620001c3565b82800160010185558215620001c3579182015b82811115620001c2578251825591602001919060010190620001a5565b5b509050620001d29190620001d6565b5090565b5b80821115620001f1576000816000905550600101620001d7565b5090565b60006200020c62000206846200038a565b62000361565b9050828152602081018484840111156200022557600080fd5b62000232848285620003d7565b509392505050565b600082601f8301126200024c57600080fd5b81516200025e848260208601620001f5565b91505092915050565b6000815190506200027881620004e8565b92915050565b6000815190506200028f8162000502565b92915050565b60008060008060808587031215620002ac57600080fd5b600085015167ffffffffffffffff811115620002c757600080fd5b620002d5878288016200023a565b945050602085015167ffffffffffffffff811115620002f357600080fd5b62000301878288016200023a565b935050604062000314878288016200027e565b9250506060620003278782880162000267565b91505092959194509250565b6200033e81620003c0565b82525050565b60006020820190506200035b600083018462000333565b92915050565b60006200036d62000380565b90506200037b828262000443565b919050565b6000604051905090565b600067ffffffffffffffff821115620003a857620003a7620004a8565b5b620003b382620004d7565b9050602081019050919050565b6000819050919050565b600060ff82169050919050565b60005b83811015620003f7578082015181840152602081019050620003da565b8381111562000407576000848401525b50505050565b600060028204905060018216806200042657607f821691505b602082108114156200043d576200043c62000479565b5b50919050565b6200044e82620004d7565b810181811067ffffffffffffffff8211171562000470576200046f620004a8565b5b80604052505050565b7f4e487b7100000000000000000000000000000000000000000000000000000000600052602260045260246000fd5b7f4e487b7100000000000000000000000000000000000000000000000000000000600052604160045260246000fd5b6000601f19601f8301169050919050565b620004f381620003c0565b8114620004ff57600080fd5b50565b6200050d81620003ca565b81146200051957600080fd5b50565b6110aa806200052c6000396000f3fe608060405234801561001057600080fd5b50600436106100885760003560e01c806370a082311161005b57806370a082311461010357806395d89b41146101335780639dc29fac14610151578063a9059cbb1461016d57610088565b806306fdde031461008d57806318160ddd146100ab578063313ce567146100c957806340c10f19146100e7575b600080fd5b61009561019d565b6040516100a29190610b85565b60405180910390f35b6100b361022f565b6040516100c09190610c67565b60405180910390f35b6100d1610238565b6040516100de9190610c82565b60405180910390f35b61010160048036038101906100fc91906109f6565b61024f565b005b61011d600480360381019061011891906109cd565b6103cb565b60405161012a9190610c67565b60405180910390f35b61013b610414565b6040516101489190610b85565b60405180910390f35b61016b600480360381019061016691906109f6565b6104a6565b005b610187600480360381019061018291906109f6565b6106a4565b6040516101949190610b6a565b60405180910390f35b6060600380546101ac90610dcb565b80601f01602080910402602001604051908101604052809291908181526020018280546101d890610dcb565b80156102255780601f106101fa57610100808354040283529160200191610225565b820191906000526020600020905b81548152906001019060200180831161020857829003601f168201915b5050505050905090565b60008054905090565b6000600160009054906101000a900460ff16905090565b600073ffffffffffffffffffffffffffffffffffffffff168273ffffffffffffffffffffffffffffffffffffffff1614156102bf576040517f08c379a00000000000000000000000000000000000000000000000000000000081526004016102b690610ba7565b60405180910390fd5b806000546102cd9190610cb9565b60008190555080600460008473ffffffffffffffffffffffffffffffffffffffff1673ffffffffffffffffffffffffffffffffffffffff1681526020019081526020016000205461031e9190610cb9565b600460008473ffffffffffffffffffffffffffffffffffffffff1673ffffffffffffffffffffffffffffffffffffffff168152602001908152602001600020819055508173ffffffffffffffffffffffffffffffffffffffff16600073ffffffffffffffffffffffffffffffffffffffff167fddf252ad1be2c89b69c2b068fc378daa952ba7f163c4a11628f55a4df523b3ef836040516103bf9190610c67565b60405180910390a35050565b6000600460008373ffffffffffffffffffffffffffffffffffffffff1673ffffffffffffffffffffffffffffffffffffffff168152602001908152602001600020549050919050565b60606002805461042390610dcb565b80601f016020809104026020016040519081016040528092919081815260200182805461044f90610dcb565b801561049c5780601f106104715761010080835404028352916020019161049c565b820191906000526020600020905b81548152906001019060200180831161047f57829003601f168201915b5050505050905090565b600073ffffffffffffffffffffffffffffffffffffffff168273ffffffffffffffffffffffffffffffffffffffff161415610516576040517f08c379a000000000000000000000000000000000000000000000000000000000815260040161050d90610bc7565b60405180910390fd5b80600460008473ffffffffffffffffffffffffffffffffffffffff1673ffffffffffffffffffffffffffffffffffffffff168152602001908152602001600020541015610598576040517f08c379a000000000000000000000000000000000000000000000000000000000815260040161058f90610c27565b60405180910390fd5b80600460008473ffffffffffffffffffffffffffffffffffffffff1673ffffffffffffffffffffffffffffffffffffffff168152602001908152602001600020546105e39190610d0f565b600460008473ffffffffffffffffffffffffffffffffffffffff1673ffffffffffffffffffffffffffffffffffffffff16815260200190815260200160002081905550806000546106349190610d0f565b600081905550600073ffffffffffffffffffffffffffffffffffffffff168273ffffffffffffffffffffffffffffffffffffffff167fddf252ad1be2c89b69c2b068fc378daa952ba7f163c4a11628f55a4df523b3ef836040516106989190610c67565b60405180910390a35050565b60006106b13384846106bb565b6001905092915050565b600073ffffffffffffffffffffffffffffffffffffffff168373ffffffffffffffffffffffffffffffffffffffff16141561072b576040517f08c379a000000000000000000000000000000000000000000000000000000000815260040161072290610c47565b60405180910390fd5b600073ffffffffffffffffffffffffffffffffffffffff168273ffffffffffffffffffffffffffffffffffffffff16141561079b576040517f08c379a000000000000000000000000000000000000000000000000000000000815260040161079290610c07565b60405180910390fd5b80600460008573ffffffffffffffffffffffffffffffffffffffff1673ffffffffffffffffffffffffffffffffffffffff16815260200190815260200160002054101561081d576040517f08c379a000000000000000000000000000000000000000000000000000000000815260040161081490610be7565b60405180910390fd5b80600460008573ffffffffffffffffffffffffffffffffffffffff1673ffffffffffffffffffffffffffffffffffffffff168152602001908152602001600020546108689190610d0f565b600460008573ffffffffffffffffffffffffffffffffffffffff1673ffffffffffffffffffffffffffffffffffffffff1681526020019081526020016000208190555080600460008473ffffffffffffffffffffffffffffffffffffffff1673ffffffffffffffffffffffffffffffffffffffff168152602001908152602001600020546108f69190610cb9565b600460008473ffffffffffffffffffffffffffffffffffffffff1673ffffffffffffffffffffffffffffffffffffffff168152602001908152602001600020819055508173ffffffffffffffffffffffffffffffffffffffff168373ffffffffffffffffffffffffffffffffffffffff167fddf252ad1be2c89b69c2b068fc378daa952ba7f163c4a11628f55a4df523b3ef836040516109969190610c67565b60405180910390a3505050565b6000813590506109b281611046565b92915050565b6000813590506109c78161105d565b92915050565b6000602082840312156109df57600080fd5b60006109ed848285016109a3565b91505092915050565b60008060408385031215610a0957600080fd5b6000610a17858286016109a3565b9250506020610a28858286016109b8565b9150509250929050565b610a3b81610d55565b82525050565b6000610a4c82610c9d565b610a568185610ca8565b9350610a66818560208601610d98565b610a6f81610e5b565b840191505092915050565b6000610a87602583610ca8565b9150610a9282610e6c565b604082019050919050565b6000610aaa602783610ca8565b9150610ab582610ebb565b604082019050919050565b6000610acd603583610ca8565b9150610ad882610f0a565b604082019050919050565b6000610af0602283610ca8565b9150610afb82610f59565b604082019050919050565b6000610b13603083610ca8565b9150610b1e82610fa8565b604082019050919050565b6000610b36602483610ca8565b9150610b4182610ff7565b604082019050919050565b610b5581610d81565b82525050565b610b6481610d8b565b82525050565b6000602082019050610b7f6000830184610a32565b92915050565b60006020820190508181036000830152610b9f8184610a41565b905092915050565b60006020820190508181036000830152610bc081610a7a565b9050919050565b60006020820190508181036000830152610be081610a9d565b9050919050565b60006020820190508181036000830152610c0081610ac0565b9050919050565b60006020820190508181036000830152610c2081610ae3565b9050919050565b60006020820190508181036000830152610c4081610b06565b9050919050565b60006020820190508181036000830152610c6081610b29565b9050919050565b6000602082019050610c7c6000830184610b4c565b92915050565b6000602082019050610c976000830184610b5b565b92915050565b600081519050919050565b600082825260208201905092915050565b6000610cc482610d81565b9150610ccf83610d81565b9250827fffffffffffffffffffffffffffffffffffffffffffffffffffffffffffffffff03821115610d0457610d03610dfd565b5b828201905092915050565b6000610d1a82610d81565b9150610d2583610d81565b925082821015610d3857610d37610dfd565b5b828203905092915050565b6000610d4e82610d61565b9050919050565b60008115159050919050565b600073ffffffffffffffffffffffffffffffffffffffff82169050919050565b6000819050919050565b600060ff82169050919050565b60005b83811015610db6578082015181840152602081019050610d9b565b83811115610dc5576000848401525b50505050565b60006002820490506001821680610de357607f821691505b60208210811415610df757610df6610e2c565b5b50919050565b7f4e487b7100000000000000000000000000000000000000000000000000000000600052601160045260246000fd5b7f4e487b7100000000000000000000000000000000000000000000000000000000600052602260045260246000fd5b6000601f19601f8301169050919050565b7f446576546f6b656e3a2063616e6e6f74206d696e7420746f207a65726f20616460008201527f6472657373000000000000000000000000000000000000000000000000000000602082015250565b7f446576546f6b656e3a2063616e6e6f74206275726e2066726f6d207a65726f2060008201527f6164647265737300000000000000000000000000000000000000000000000000602082015250565b7f446576546f6b656e3a2063616e2774207472616e73666572206d6f726520746860008201527f616e20796f7572206163636f756e7420686f6c64730000000000000000000000602082015250565b7f446576546f6b656e3a207472616e7366657220746f207a65726f20616464726560008201527f7373000000000000000000000000000000000000000000000000000000000000602082015250565b7f446576546f6b656e3a2063616e6e6f74206275726e206d6f7265207468616e2060008201527f746865206163636f756e74206f776e7300000000000000000000000000000000602082015250565b7f446576546f6b656e3a207472616e736665722066726f6d207a65726f2061646460008201527f7265737300000000000000000000000000000000000000000000000000000000602082015250565b61104f81610d43565b811461105a57600080fd5b50565b61106681610d81565b811461107157600080fd5b5056fea2646970667358221220b6d88a4265d0836fb7a35c9dc489580f3761a77a9872614c04d18da7167761c664736f6c63430008040033",
  "immutableReferences": {},
  "source": "// SPDX-License-Identifier: MIT\r\npragma solidity ^0.8.4;\r\n\r\n/**\r\n * @notice DevToken is a development token that we use to learn how to code solidity\r\n * and what BEP-20 interface requires\r\n */\r\ncontract DevToken {\r\n\r\n  /**\r\n   * @notice Our Tokens required variables that are needed to operate everything\r\n   */\r\n  uint private _totalSupply;\r\n  uint8 private _decimals;\r\n  string private _symbol;\r\n  string private _name;\r\n\r\n  /**\r\n   * @notice _balances is a mapping that contains a addres as KEY\r\n   * and the balance of the address as the valeu\r\n  */\r\n  mapping (address => uint256) private _balances;\r\n\r\n  /**\r\n   * @notice Events are created below\r\n   * Transfer event is a event that\r\n  */\r\n  event Transfer(address indexed from, address indexed to, uint256 value);\r\n\r\n  /**\r\n   * @notice constructor will be triggered when we creae Smart contract\r\n   * _name = name of the token\r\n   * _short_symbol = Short Symbol name for the token\r\n   * token_decimals = The decimal precision of the Token, defaults 18\r\n   * _ totalSupply is how much Tokens there are totally\r\n   */\r\n  constructor(string memory token_name, string memory short_symbol, uint8 token_decimals, uint256 token_totalSupply) {\r\n    _name = token_name;\r\n    _symbol = short_symbol;\r\n    _decimals = token_decimals;\r\n    _totalSupply = token_totalSupply;\r\n\r\n    // Add all the tokens created to the creator of the token\r\n    _balances[msg.sender] = _totalSupply;\r\n\r\n    // Emit an Transfer event to notify the blockchain that an Transfer has occured\r\n    emit Transfer(address(0), msg.sender, _totalSupply);\r\n  }\r\n\r\n  /**\r\n   * @notice decimals will return the number of decimal precision the Token is deployed with\r\n   */\r\n   function decimals() external view returns (uint8) {\r\n     return _decimals;\r\n   }\r\n\r\n  /**\r\n   * @notice symbol will return the Token's symbol\r\n   */\r\n  function symbol() external view returns (string memory) {\r\n    return _symbol;\r\n  }\r\n\r\n  /**\r\n   * @notice name will return the Token's name\r\n   */\r\n  function name() external view returns (string memory) {\r\n    return _name;\r\n  }\r\n\r\n  /**\r\n   * @notice totalSupply will return the tokens total supply of tokens\r\n   */\r\n  function totalSupply() external view returns (uint256) {\r\n    return _totalSupply;\r\n  }\r\n\r\n  /**\r\n   * @notice balanceOf will return the acount balance for the given account\r\n   */\r\n  function balanceOf(address account) external view returns (uint256) {\r\n    return _balances[account];\r\n  }\r\n\r\n  /**\r\n   * @notice mint will create tokens on the address inputted and then increase the total supply\r\n   *\r\n   * It will also emit an Transfer event, with sender set to zero address (address(0))\r\n   * \r\n   * Requires that the address that is receiving the tokens is not zero address\r\n   */\r\n  function mint(address account, uint256 amount) public {\r\n    require(account != address(0), \"DevToken: cannot mint to zero address\" );\r\n\r\n    // Increase total supply\r\n    _totalSupply = _totalSupply + (amount);\r\n    // Add amount to the ccount balance using the balance mapping\r\n    _balances[account] = _balances[account] + amount;\r\n    // Emit our event to log the action\r\n    emit Transfer(address(0),account, amount);\r\n  }\r\n\r\n  /**\r\n   * @notice burn will destroy tokens from an address inputted and then decrease total supply\r\n   * An Transfer event will emit with receiver set to zero address\r\n   *\r\n   * Requires\r\n   * - Account cannot be zero\r\n   * - Account balance has to be bigger or equal to amount\r\n   */\r\n  function burn(address account, uint256 amount) public {\r\n    require(account != address(0), \"DevToken: cannot burn from zero address\");\r\n    require(_balances[account] >= amount, \"DevToken: cannot burn more than the account owns\");\r\n\r\n    // Remove the amount from the account balance\r\n    _balances[account] = _balances[account] - amount;\r\n    // Decrease totalSupply\r\n    _totalSupply = _totalSupply - amount;\r\n    // emit event, use zero address as receiver\r\n    emit Transfer(account, address(0), amount);\r\n\r\n  }\r\n\r\n   /**\r\n    * @notice transfer is used to transfer funds from the sender to the recipient.\r\n    * This function is only callable from outside the contract. For internal use see\r\n    * _transfer\r\n    *\r\n    * Requires\r\n    * - Caller cannot be zero\r\n    * - Caller must have a balance = or bigger than amount\r\n    * \r\n    */\r\n  function transfer(address recipient, uint256 amount) external returns (bool) {\r\n    _transfer(msg.sender, recipient, amount);\r\n    return true;\r\n  }\r\n\r\n  /**\r\n   * @notice transfer is used for internal transfers\r\n   *\r\n   * Events\r\n   * - Transfer\r\n   *\r\n   * Requires\r\n   * - Sender cannot be zero\r\n   * - recipient cannot be zero\r\n   * - sender balance must be = or bigger thant amount\r\n  */\r\n  function _transfer(address sender, address recipient, uint256 amount) internal {\r\n    require(sender != address(0), \"DevToken: transfer from zero address\");\r\n    require(recipient != address(0), \"DevToken: transfer to zero address\");\r\n    require(_balances[sender] >= amount, \"DevToken: can't transfer more than your account holds\");\r\n\r\n    _balances[sender] = _balances[sender] - amount;\r\n    _balances[recipient] = _balances[recipient] + amount;\r\n\r\n    emit Transfer(sender, recipient, amount);\r\n  }\r\n\r\n\r\n}\r\n",
  "sourcePath": "F:\\projetos\\dev-token\\contracts\\DevToken.sol",
  "compiler": {
    "name": "solc",
    "version": "0.8.4+commit.c7e474f2.Emscripten.clang"
  },
  "schemaVersion": "3.4.3",
  "updatedAt": "2022-02-09T22:04:15.121Z",
  "networkType": "ethereum",
  "devdoc": {
    "kind": "dev",
    "methods": {},
    "version": 1
  },
  "userdoc": {
    "events": {
      "Transfer(address,address,uint256)": {
        "notice": "Events are created below Transfer event is a event that"
      }
    },
    "kind": "user",
    "methods": {
      "balanceOf(address)": {
        "notice": "balanceOf will return the acount balance for the given account"
      },
      "burn(address,uint256)": {
        "notice": "burn will destroy tokens from an address inputted and then decrease total supply An Transfer event will emit with receiver set to zero address Requires - Account cannot be zero - Account balance has to be bigger or equal to amount"
      },
      "constructor": {
        "notice": "constructor will be triggered when we creae Smart contract _name = name of the token _short_symbol = Short Symbol name for the token token_decimals = The decimal precision of the Token, defaults 18 _ totalSupply is how much Tokens there are totally"
      },
      "decimals()": {
        "notice": "decimals will return the number of decimal precision the Token is deployed with"
      },
      "mint(address,uint256)": {
        "notice": "mint will create tokens on the address inputted and then increase the total supply It will also emit an Transfer event, with sender set to zero address (address(0))  Requires that the address that is receiving the tokens is not zero address"
      },
      "name()": {
        "notice": "name will return the Token's name"
      },
      "symbol()": {
        "notice": "symbol will return the Token's symbol"
      },
      "totalSupply()": {
        "notice": "totalSupply will return the tokens total supply of tokens"
      },
      "transfer(address,uint256)": {
        "notice": "transfer is used to transfer funds from the sender to the recipient. This function is only callable from outside the contract. For internal use see _transfer Requires - Caller cannot be zero - Caller must have a balance = or bigger than amount "
      }
    },
    "notice": "DevToken is a development token that we use to learn how to code solidity and what BEP-20 interface requires",
    "version": 1
  }
}